{
  "contractName": "add",
  "abi": [
    {
      "constant": false,
      "inputs": [
        {
          "internalType": "bytes32",
          "name": "_val",
          "type": "bytes32"
        }
      ],
      "name": "incr",
      "outputs": [],
      "payable": true,
      "stateMutability": "payable",
      "type": "function"
    },
    {
      "constant": false,
      "inputs": [],
      "name": "getVal",
      "outputs": [
        {
          "internalType": "uint256",
          "name": "",
          "type": "uint256"
        }
      ],
      "payable": false,
      "stateMutability": "nonpayable",
      "type": "function"
    },
    {
      "constant": false,
      "inputs": [
        {
          "internalType": "uint256",
          "name": "_choice",
          "type": "uint256"
        },
        {
          "internalType": "uint256",
          "name": "playerRandomness",
          "type": "uint256"
        },
        {
          "internalType": "uint256",
          "name": "noOfHour",
          "type": "uint256"
        },
        {
          "internalType": "bytes32",
          "name": "gameID",
          "type": "bytes32"
        }
      ],
      "name": "initiateGame",
      "outputs": [
        {
          "internalType": "bytes32",
          "name": "",
          "type": "bytes32"
        }
      ],
      "payable": true,
      "stateMutability": "payable",
      "type": "function"
    }
  ],
  "bytecode": "0x608060405234801561001057600080fd5b50610157806100206000396000f3fe6080604052600436106100345760003560e01c806361b21b611461003957806373d6d0a314610067578063e1cb0e52146100c7575b600080fd5b6100656004803603602081101561004f57600080fd5b81019080803590602001909291905050506100f2565b005b6100b16004803603608081101561007d57600080fd5b8101908080359060200190929190803590602001909291908035906020019092919080359060200190929190505050610107565b6040518082815260200191505060405180910390f35b3480156100d357600080fd5b506100dc610119565b6040518082815260200191505060405180910390f35b60003390506001600054016000819055505050565b60008082905080915050949350505050565b6000805490509056fea265627a7a72315820a8911905ffea7239e03e848c50f1978ba31288fc3dba4d4c93a17c2684099d8164736f6c63430005100032",
  "source": "// SPDX-License-Identifier: MIT\npragma solidity >=0.4.22 <0.9.0;\n\ncontract add {\n \n    uint a ;\n\n\n  \n  function incr(bytes32 _val) public payable {\n      address   addr = msg.sender;\n      a= a +1;\n     \n    \n  }\n\n  function getVal() public returns(uint) {\n      return a;\n  }\n\n\n  function initiateGame(uint _choice, uint playerRandomness, uint noOfHour, bytes32 gameID) payable public returns(bytes32) {\n       \n        bytes32 _gameId =gameID; \n        \n       // require (_choice >= 0,\"choice shouldbe greater then zero\"); \n        //require (_choice <= 2, \"choice should be less then or equal to two\"); \n    \n                // gameIDToGame[_gameId].playerOneAddress = msg.sender;\n                // gameIDToGame[_gameId].playerOneChoice = keccak256(abi.encodePacked(_choice, playerRandomness));\n                // gameIDToGame[_gameId].playerOneBetAmount = msg.value;\n    /*\n        if(address(gameIDToGame[_gameId].playerOneAddress) == address(0)) { //player 1 has placed his bet , so player 2 will put his bet\n\n                gameIDToGame[_gameId].playerOneAddress = msg.sender;\n                gameIDToGame[_gameId].playerOneChoice = keccak256(abi.encodePacked(_choice, playerRandomness));\n                gameIDToGame[_gameId].playerOneBetAmount = msg.value;\n           // require(now < gameIDToGame[_gameId].expiryTime, \"Max waiting time has already passed\");\n            \n            //\n           // gameIDToGame[_gameId].playerTwoAddress = msg.sender;\n        //    gameIDToGame[_gameId].playerTwoChoice = keccak256(abi.encodePacked(_choice, playerRandomness));\n          //  gameIDToGame[_gameId].playerTwoBetAmount = msg.value;\n            \n        } else {//player 1 will place his bet\n        \n          //  gameIDToGame[_gameId].playerOneAddress = msg.sender;\n          //  gameIDToGame[_gameId].playerOneChoice = keccak256(abi.encodePacked(_choice, playerRandomness));\n          //  gameIDToGame[_gameId].playerOneBetAmount = msg.value;\n          \n           gameIDToGame[_gameId].playerTwoAddress = msg.sender;\n           gameIDToGame[_gameId].playerTwoChoice = keccak256(abi.encodePacked(_choice, playerRandomness));\n           gameIDToGame[_gameId].playerTwoBetAmount = msg.value;\n        }\n    */\n        return _gameId;\n\n    }\n\n\n}\n",
  "sourcePath": "/Users/conduent/RockPaperScissorGameInSolidity/RockPaperScissorGame/contracts/add.sol",
  "compiler": {
    "name": "solc",
    "version": "0.5.16+commit.9c3226ce.Emscripten.clang"
  },
  "schemaVersion": "3.4.0",
  "updatedAt": "2021-07-07T20:21:32.183Z",
  "networkType": "ethereum",
  "devdoc": {
    "methods": {}
  },
  "userdoc": {
    "methods": {}
  }
}