{
  "contractName": "RockPaperScissors",
  "abi": [
    {
      "inputs": [],
      "payable": false,
      "stateMutability": "nonpayable",
      "type": "constructor"
    },
    {
      "anonymous": false,
      "inputs": [
        {
          "indexed": false,
          "internalType": "bytes32",
          "name": "gameID",
          "type": "bytes32"
        },
        {
          "indexed": false,
          "internalType": "address",
          "name": "playerAddr",
          "type": "address"
        },
        {
          "indexed": false,
          "internalType": "uint256",
          "name": "betAmt",
          "type": "uint256"
        },
        {
          "indexed": false,
          "internalType": "uint256",
          "name": "choice",
          "type": "uint256"
        }
      ],
      "name": "BetPlaced",
      "type": "event"
    },
    {
      "anonymous": false,
      "inputs": [
        {
          "indexed": false,
          "internalType": "bytes32",
          "name": "gameID",
          "type": "bytes32"
        },
        {
          "indexed": false,
          "internalType": "string",
          "name": "gameResult",
          "type": "string"
        },
        {
          "indexed": false,
          "internalType": "address",
          "name": "winnerAddr",
          "type": "address"
        }
      ],
      "name": "GameEnded",
      "type": "event"
    },
    {
      "anonymous": false,
      "inputs": [
        {
          "indexed": false,
          "internalType": "bytes32",
          "name": "gameID",
          "type": "bytes32"
        },
        {
          "indexed": false,
          "internalType": "uint256",
          "name": "amount",
          "type": "uint256"
        }
      ],
      "name": "gameExpired",
      "type": "event"
    },
    {
      "anonymous": false,
      "inputs": [
        {
          "indexed": false,
          "internalType": "bytes32",
          "name": "gameID",
          "type": "bytes32"
        },
        {
          "indexed": false,
          "internalType": "uint256",
          "name": "amount",
          "type": "uint256"
        },
        {
          "indexed": false,
          "internalType": "address",
          "name": "winnerAddr",
          "type": "address"
        }
      ],
      "name": "rewardedWinner",
      "type": "event"
    },
    {
      "constant": true,
      "inputs": [],
      "name": "newGameID",
      "outputs": [
        {
          "internalType": "bytes32",
          "name": "_hashGameID",
          "type": "bytes32"
        }
      ],
      "payable": false,
      "stateMutability": "view",
      "type": "function"
    },
    {
      "constant": false,
      "inputs": [
        {
          "internalType": "uint256",
          "name": "_choice",
          "type": "uint256"
        },
        {
          "internalType": "uint256",
          "name": "playerRandomness",
          "type": "uint256"
        },
        {
          "internalType": "bytes32",
          "name": "gameID",
          "type": "bytes32"
        }
      ],
      "name": "initiateGame",
      "outputs": [
        {
          "internalType": "bytes32",
          "name": "",
          "type": "bytes32"
        }
      ],
      "payable": true,
      "stateMutability": "payable",
      "type": "function"
    },
    {
      "constant": false,
      "inputs": [
        {
          "internalType": "bytes32",
          "name": "_gameId",
          "type": "bytes32"
        },
        {
          "internalType": "address payable",
          "name": "playerOne",
          "type": "address"
        },
        {
          "internalType": "uint256",
          "name": "_playerOneChoice",
          "type": "uint256"
        },
        {
          "internalType": "uint256",
          "name": "playerOneRandomness",
          "type": "uint256"
        },
        {
          "internalType": "address payable",
          "name": "playerTwo",
          "type": "address"
        },
        {
          "internalType": "uint256",
          "name": "_playerTwoChoice",
          "type": "uint256"
        },
        {
          "internalType": "uint256",
          "name": "playerTwoRandomness",
          "type": "uint256"
        }
      ],
      "name": "judgeWinner",
      "outputs": [
        {
          "internalType": "string",
          "name": "",
          "type": "string"
        }
      ],
      "payable": false,
      "stateMutability": "nonpayable",
      "type": "function"
    },
    {
      "constant": true,
      "inputs": [
        {
          "internalType": "bytes32",
          "name": "gameID",
          "type": "bytes32"
        }
      ],
      "name": "getWinnerDetails",
      "outputs": [
        {
          "internalType": "address",
          "name": "",
          "type": "address"
        }
      ],
      "payable": false,
      "stateMutability": "view",
      "type": "function"
    }
  ],
  "bytecode": "0x608060405234801561001057600080fd5b506111a7806100206000396000f3fe60806040526004361061003f5760003560e01c80635c6324bb146100445780639693ba81146100bf578063e513191e146100ea578063f0c84da614610206575b600080fd5b34801561005057600080fd5b5061007d6004803603602081101561006757600080fd5b810190808035906020019092919050505061025c565b604051808273ffffffffffffffffffffffffffffffffffffffff1673ffffffffffffffffffffffffffffffffffffffff16815260200191505060405180910390f35b3480156100cb57600080fd5b506100d461029b565b6040518082815260200191505060405180910390f35b3480156100f657600080fd5b5061018b600480360360e081101561010d57600080fd5b8101908080359060200190929190803573ffffffffffffffffffffffffffffffffffffffff1690602001909291908035906020019092919080359060200190929190803573ffffffffffffffffffffffffffffffffffffffff16906020019092919080359060200190929190803590602001909291905050506102f8565b6040518080602001828103825283818151815260200191508051906020019080838360005b838110156101cb5780820151818401526020810190506101b0565b50505050905090810190601f1680156101f85780820380516001836020036101000a031916815260200191505b509250505060405180910390f35b6102466004803603606081101561021c57600080fd5b81019080803590602001909291908035906020019092919080359060200190929190505050610715565b6040518082815260200191505060405180910390f35b600080600083815260200190815260200160002060080160009054906101000a900473ffffffffffffffffffffffffffffffffffffffff169050919050565b600033604051602001808273ffffffffffffffffffffffffffffffffffffffff1673ffffffffffffffffffffffffffffffffffffffff1660601b815260140191505060405160208183030381529060405280519060200120905090565b6060806000801b891415610374576040517f08c379a00000000000000000000000000000000000000000000000000000000081526004018080602001828103825260188152602001807f67616d652069642073686f756c646e74206265207a65726f000000000000000081525060200191505060405180910390fd5b83871415610419576040518060400160405280600381526020017f5469650000000000000000000000000000000000000000000000000000000000815250905060008060008b815260200190815260200160002060080160006101000a81548173ffffffffffffffffffffffffffffffffffffffff021916908373ffffffffffffffffffffffffffffffffffffffff16021790555061041488868b610a79565b6105f9565b600060ff168714801561042f5750600260ff1684145b8061044c5750600260ff168714801561044b5750600160ff1684145b5b806104695750600160ff16871480156104685750600060ff1684145b5b1561050a576040518060400160405280600981526020017f706c617965724f6e6500000000000000000000000000000000000000000000008152509050876000808b815260200190815260200160002060080160006101000a81548173ffffffffffffffffffffffffffffffffffffffff021916908373ffffffffffffffffffffffffffffffffffffffff160217905550610504888a610b42565b506105f8565b600060ff16841480156105205750600260ff1687145b8061053d5750600260ff168414801561053c5750600160ff1687145b5b8061055a5750600160ff16841480156105595750600060ff1687145b5b156105f7576040518060400160405280600981526020017f706c6179657254776f00000000000000000000000000000000000000000000008152509050846000808b815260200190815260200160002060080160006101000a81548173ffffffffffffffffffffffffffffffffffffffff021916908373ffffffffffffffffffffffffffffffffffffffff1602179055506105f5858a610b42565b505b5b5b7fb19be2c0c8665ec31f04098c0a442cac5200f7c2c1929b0446037af2f7d2a46e89826000808d815260200190815260200160002060080160009054906101000a900473ffffffffffffffffffffffffffffffffffffffff1660405180848152602001806020018373ffffffffffffffffffffffffffffffffffffffff1673ffffffffffffffffffffffffffffffffffffffff168152602001828103825284818151815260200191508051906020019080838360005b838110156106ca5780820151818401526020810190506106af565b50505050905090810190601f1680156106f75780820380516001836020036101000a031916815260200191505b5094505050505060405180910390a180915050979650505050505050565b600080829050600085101561072957600080fd5b600285111561073757600080fd5b600073ffffffffffffffffffffffffffffffffffffffff1660008083815260200190815260200160002060000160009054906101000a900473ffffffffffffffffffffffffffffffffffffffff1673ffffffffffffffffffffffffffffffffffffffff161461090357600080828152602001908152602001600020600701544211156107cc576107c683611086565b50610883565b3360008083815260200190815260200160002060030160006101000a81548173ffffffffffffffffffffffffffffffffffffffff021916908373ffffffffffffffffffffffffffffffffffffffff16021790555084846040516020018083815260200182815260200192505050604051602081830303815290604052805190602001206000808381526020019081526020016000206004018190555034600080838152602001908152602001600020600501819055505b7fc9621b1db612fa52c8213099eb7c450b407922963a8c63ee6bfe963404f4599783333488604051808581526020018473ffffffffffffffffffffffffffffffffffffffff1673ffffffffffffffffffffffffffffffffffffffff16815260200183815260200182815260200194505050505060405180910390a1610a6e565b3360008083815260200190815260200160002060000160006101000a81548173ffffffffffffffffffffffffffffffffffffffff021916908373ffffffffffffffffffffffffffffffffffffffff16021790555084846040516020018083815260200182815260200192505050604051602081830303815290604052805190602001206000808381526020019081526020016000206001018190555034600080838152602001908152602001600020600201819055504260008083815260200190815260200160002060060181905550620151804201600080838152602001908152602001600020600701819055507fc9621b1db612fa52c8213099eb7c450b407922963a8c63ee6bfe963404f4599783333488604051808581526020018473ffffffffffffffffffffffffffffffffffffffff1673ffffffffffffffffffffffffffffffffffffffff16815260200183815260200182815260200194505050505060405180910390a15b809150509392505050565b600083905060008390508173ffffffffffffffffffffffffffffffffffffffff166108fc600080868152602001908152602001600020600201549081150290604051600060405180830381858888f19350505050158015610ade573d6000803e3d6000fd5b508073ffffffffffffffffffffffffffffffffffffffff166108fc600080868152602001908152602001600020600501549081150290604051600060405180830381858888f19350505050158015610b3a573d6000803e3d6000fd5b505050505050565b60008047905060008084815260200190815260200160002060080160009054906101000a900473ffffffffffffffffffffffffffffffffffffffff1673ffffffffffffffffffffffffffffffffffffffff1660008085815260200190815260200160002060000160009054906101000a900473ffffffffffffffffffffffffffffffffffffffff1673ffffffffffffffffffffffffffffffffffffffff161415610de1576000806000858152602001908152602001600020600201549050816002820211610d3c57600060028202905060008086815260200190815260200160002060080160009054906101000a900473ffffffffffffffffffffffffffffffffffffffff1673ffffffffffffffffffffffffffffffffffffffff166108fc829081150290604051600060405180830381858888f19350505050158015610c8d573d6000803e3d6000fd5b507fb9b90afacd889fcdba62884c405e71796168a9738905ef0d900e4eb346456f71858360008089815260200190815260200160002060080160009054906101000a900473ffffffffffffffffffffffffffffffffffffffff16604051808481526020018381526020018273ffffffffffffffffffffffffffffffffffffffff1673ffffffffffffffffffffffffffffffffffffffff168152602001935050505060405180910390a150610dd6565b6000806000868152602001908152602001600020600501548303905060008086815260200190815260200160002060080160009054906101000a900473ffffffffffffffffffffffffffffffffffffffff1673ffffffffffffffffffffffffffffffffffffffff166108fc829081150290604051600060405180830381858888f19350505050158015610dd3573d6000803e3d6000fd5b50505b600192505050611080565b60008084815260200190815260200160002060080160009054906101000a900473ffffffffffffffffffffffffffffffffffffffff1673ffffffffffffffffffffffffffffffffffffffff1660008085815260200190815260200160002060030160009054906101000a900473ffffffffffffffffffffffffffffffffffffffff1673ffffffffffffffffffffffffffffffffffffffff16141561107a576000806000858152602001908152602001600020600501549050816002820211610fd557600060028202905060008086815260200190815260200160002060080160009054906101000a900473ffffffffffffffffffffffffffffffffffffffff1673ffffffffffffffffffffffffffffffffffffffff166108fc829081150290604051600060405180830381858888f19350505050158015610f26573d6000803e3d6000fd5b507fb9b90afacd889fcdba62884c405e71796168a9738905ef0d900e4eb346456f71858360008089815260200190815260200160002060080160009054906101000a900473ffffffffffffffffffffffffffffffffffffffff16604051808481526020018381526020018273ffffffffffffffffffffffffffffffffffffffff1673ffffffffffffffffffffffffffffffffffffffff168152602001935050505060405180910390a15061106f565b6000806000868152602001908152602001600020600201548303905060008086815260200190815260200160002060080160009054906101000a900473ffffffffffffffffffffffffffffffffffffffff1673ffffffffffffffffffffffffffffffffffffffff166108fc829081150290604051600060405180830381858888f1935050505015801561106c573d6000803e3d6000fd5b50505b600192505050611080565b60009150505b92915050565b600080600083815260200190815260200160002060000160009054906101000a900473ffffffffffffffffffffffffffffffffffffffff1673ffffffffffffffffffffffffffffffffffffffff166108fc600080858152602001908152602001600020600201549081150290604051600060405180830381858888f19350505050158015611118573d6000803e3d6000fd5b507f93216c5d810d4caf0273c1920ddc734f86f8ba375536f0d7c8067a6a7e812bef8260008085815260200190815260200160002060020154604051808381526020018281526020019250505060405180910390a191905056fea265627a7a7231582029a53ef0025ff3b4c7d638bb93b9ce6fc991975dfae8f6a1dc44e00b5a0a492c64736f6c63430005100032",
  "source": "pragma solidity 0.5.16;\n\ncontract RockPaperScissors {\n\n\n    uint8 constant ROCK = 0;\n    uint8 constant PAPER = 1;\n    uint8 constant SCISSORS = 2;\n   \n    struct GameData {\n       \n       address payable playerOneAddress;\n       bytes32 playerOneChoice;\n       uint playerOneBetAmount;\n      \n       address payable playerTwoAddress;\n       bytes32 playerTwoChoice;\n       uint playerTwoBetAmount;\n\n     //  uint expiryTime;\n\n       uint startDate ;\n       uint endDate;\n\n       address payable winner;\n\n\n    }\n\n    mapping (bytes32 => GameData) gameIDToGame;\n\n    event BetPlaced(bytes32 gameID, address playerAddr, uint betAmt, uint choice);\n\n    event GameEnded(bytes32 gameID, string gameResult, address winnerAddr);\n  \n    event rewardedWinner(bytes32 gameID, uint256 amount, address winnerAddr);\n    \n    event gameExpired(bytes32 gameID, uint256 amount);\n\n    constructor() public {\n\n    }\n\n/*\nto generate the unique game id\n*/\n    function newGameID()   \n        public view\n        returns (bytes32 _hashGameID)\n    {\n        return keccak256(abi.encodePacked(msg.sender));\n    }\n    \n    \n/*\nto start the game by choosing the option and sending ethers as a bet amount\n*/\n    function initiateGame(uint _choice, uint playerRandomness, bytes32 gameID) payable public returns(bytes32) {\n       \n        bytes32 _gameId =gameID; \n        \n        require (_choice >= 0); \n        require (_choice <= 2); \n    \n        if(address(gameIDToGame[_gameId].playerOneAddress) != address(0)) { //player 1 has placed his bet , so player 2 will put his bet\n\n          \n            if(now > gameIDToGame[_gameId].endDate) { //it has exceeded expiry time\n            \n                handleGameExpiry(gameID);\n\n            } else {\n            \n                gameIDToGame[_gameId].playerTwoAddress = msg.sender;\n                gameIDToGame[_gameId].playerTwoChoice = keccak256(abi.encodePacked(_choice, playerRandomness));\n                gameIDToGame[_gameId].playerTwoBetAmount = msg.value;\n                \n            }\n            emit BetPlaced(gameID, msg.sender, msg.value, _choice);\n        } else {//player 1 will place his bet\n    \n                gameIDToGame[_gameId].playerOneAddress = msg.sender;\n                gameIDToGame[_gameId].playerOneChoice = keccak256(abi.encodePacked(_choice, playerRandomness));\n                gameIDToGame[_gameId].playerOneBetAmount = msg.value;\n                gameIDToGame[_gameId].startDate = now; \n                gameIDToGame[_gameId].endDate = now + 1 days; \n            emit BetPlaced(gameID, msg.sender, msg.value, _choice);\n        }\n            \n            return _gameId;\n    }\n\n\n/*\nto find out the winner of a game and  reward winner.\n*/\n    function judgeWinner(\n            bytes32 _gameId,\n            address payable playerOne,\n            uint _playerOneChoice,\n            uint playerOneRandomness, // CHANGED - Randomness added which prevents the other user from correctly guessing the move of the other player\n            address payable playerTwo,\n            uint _playerTwoChoice,\n            uint playerTwoRandomness\n            ) public returns(string memory)\n        {\n                string memory winningParty;\n                require (_gameId != 0,\"game id shouldnt be zero\");\n\n                if (_playerOneChoice == _playerTwoChoice) {\n                    \n                    winningParty =\"Tie\";\n                    gameIDToGame[_gameId].winner = address(0);\n                    handleTie(playerOne, playerTwo, _gameId ); \n\n                } else if ((_playerOneChoice == ROCK && _playerTwoChoice == SCISSORS) //p1 Rock wins over scissors (because rock smashes scissors)\n                        || (_playerOneChoice == SCISSORS && _playerTwoChoice == PAPER) //p1 Scissors wins over paper (because scissors cut paper)\n                        || (_playerOneChoice == PAPER && _playerTwoChoice == ROCK)) //p1 Paper wins over rock (because paper covers rock)\n                { // p1 won\n                   \n                    winningParty = \"playerOne\";\n                    gameIDToGame[_gameId].winner = playerOne;\n                    rewardWinner(playerOne, _gameId);\n\n                } \n                else if ((_playerTwoChoice == ROCK && _playerOneChoice == SCISSORS) //p2 Rock wins over scissors (because rock smashes scissors)\n                        || (_playerTwoChoice == SCISSORS && _playerOneChoice == PAPER) //p2 Scissors wins over paper (because scissors cut paper)\n                        || (_playerTwoChoice == PAPER && _playerOneChoice == ROCK)) //p2 Paper wins over rock (because paper covers rock)\n                { // p2 won\n\n                    winningParty = \"playerTwo\";\n                    gameIDToGame[_gameId].winner = playerTwo;\n                    rewardWinner(playerTwo, _gameId);\n\n                }\n                \n                emit GameEnded(_gameId, winningParty, gameIDToGame[_gameId].winner);\n                return winningParty;\n}\n\n/*\nto transfer the winning amount to the winner's account.\n*/ \nfunction rewardWinner(address  winnerAddress, bytes32 _gameId) private returns(bool){\n\n        uint256 contBal = address(this).balance;\n\n        if(gameIDToGame[_gameId].playerOneAddress == gameIDToGame[_gameId].winner) {\n            \n             uint256 winnerBetAmt = gameIDToGame[_gameId].playerOneBetAmount ;\n             \n             if((winnerBetAmt * 2) <= contBal) {\n                 uint256 amtToTransfer = winnerBetAmt * 2;\n                 address(gameIDToGame[_gameId].winner).transfer(amtToTransfer);\n                 emit rewardedWinner(_gameId, winnerBetAmt , gameIDToGame[_gameId].winner);\n             } else {\n    // if this current bakance of contract is not enough to pay thw twice of the winner's bet amount, then at least amount left \n    // post deduction of other's bet amount from contract balance will be transferred.\n                 uint256 amtToTransfer = contBal - gameIDToGame[_gameId].playerTwoBetAmount;\n                 address(gameIDToGame[_gameId].winner).transfer(amtToTransfer);\n             }\n           return true;\n                \n        } else if(gameIDToGame[_gameId].playerTwoAddress == gameIDToGame[_gameId].winner) {\n            \n            uint256 winnerBetAmt = gameIDToGame[_gameId].playerTwoBetAmount ;\n            \n            if((winnerBetAmt * 2) <= contBal) {\n                 uint256 amtToTransfer = winnerBetAmt * 2;\n                 address(gameIDToGame[_gameId].winner).transfer(amtToTransfer);\n                 emit rewardedWinner(_gameId, winnerBetAmt , gameIDToGame[_gameId].winner);\n             } else {\n    // if this current bakance of contract is not enough to pay thw twice of the winner's bet amount, then at least amount left \n    // post deduction of other's bet amount from contract balance will be transferred.\n                 uint256 amtToTransfer = contBal - gameIDToGame[_gameId].playerOneBetAmount;\n                 address(gameIDToGame[_gameId].winner).transfer(amtToTransfer);\n             }\n            return true;\n        } \n        return false;\n    \n}\n\n/*\nto fetch the winner corresponding to the game id.\n*/\nfunction getWinnerDetails(bytes32 gameID) public view returns(address){\n\n    return gameIDToGame[gameID].winner;\n\n}\n\n\n/*\nto transfer back the amt that was transferred as a bet amount back to the player one address.\n*/\nfunction handleGameExpiry(bytes32 _gameId) private returns(bool){\n        \n         address(gameIDToGame[_gameId].playerOneAddress).transfer(gameIDToGame[_gameId].playerOneBetAmount);\n         emit gameExpired( _gameId, gameIDToGame[_gameId].playerOneBetAmount);\n    }\n\n/*\nto handle the tie.\n*/\nfunction handleTie(address playerOne, address playerTwo, bytes32 _gameId) private { \n  \n    address payable _payableOneAddress = address(uint160(playerOne));\n    address payable _payableTwoAddress = address(uint160(playerTwo));\n    \n    _payableOneAddress.transfer(gameIDToGame[_gameId].playerOneBetAmount);\n    \n    _payableTwoAddress.transfer(gameIDToGame[_gameId].playerTwoBetAmount);\n   \n}\n\n\n\n\n\n\n}\n\n\n\n",
  "sourcePath": "/Users/conduent/RockPaperScissorGameInSolidity/RockPaperScissorGame/contracts/RockPaperScissors.sol",
  "compiler": {
    "name": "solc",
    "version": "0.5.16+commit.9c3226ce.Emscripten.clang"
  },
  "schemaVersion": "3.4.1",
  "updatedAt": "2021-07-14T18:56:13.953Z",
  "networkType": "ethereum",
  "devdoc": {
    "methods": {}
  },
  "userdoc": {
    "methods": {}
  }
}