{
  "contractName": "RockPaperScissors",
  "abi": [
    {
      "inputs": [],
      "payable": false,
      "stateMutability": "nonpayable",
      "type": "constructor"
    },
    {
      "anonymous": false,
      "inputs": [
        {
          "indexed": false,
          "internalType": "bytes32",
          "name": "gameID",
          "type": "bytes32"
        },
        {
          "indexed": false,
          "internalType": "address",
          "name": "playerAddr",
          "type": "address"
        },
        {
          "indexed": false,
          "internalType": "uint256",
          "name": "betAmt",
          "type": "uint256"
        },
        {
          "indexed": false,
          "internalType": "uint256",
          "name": "choice",
          "type": "uint256"
        }
      ],
      "name": "BetPlaced",
      "type": "event"
    },
    {
      "anonymous": false,
      "inputs": [
        {
          "indexed": false,
          "internalType": "bytes32",
          "name": "gameID",
          "type": "bytes32"
        },
        {
          "indexed": false,
          "internalType": "string",
          "name": "gameResult",
          "type": "string"
        },
        {
          "indexed": false,
          "internalType": "address",
          "name": "winnerAddr",
          "type": "address"
        }
      ],
      "name": "GameEnded",
      "type": "event"
    },
    {
      "constant": true,
      "inputs": [],
      "name": "newGameID",
      "outputs": [
        {
          "internalType": "bytes32",
          "name": "_hashGameID",
          "type": "bytes32"
        }
      ],
      "payable": false,
      "stateMutability": "view",
      "type": "function"
    },
    {
      "constant": false,
      "inputs": [
        {
          "internalType": "uint256",
          "name": "_choice",
          "type": "uint256"
        },
        {
          "internalType": "uint256",
          "name": "playerRandomness",
          "type": "uint256"
        },
        {
          "internalType": "bytes32",
          "name": "gameID",
          "type": "bytes32"
        }
      ],
      "name": "initiateGame",
      "outputs": [
        {
          "internalType": "bytes32",
          "name": "",
          "type": "bytes32"
        }
      ],
      "payable": true,
      "stateMutability": "payable",
      "type": "function"
    },
    {
      "constant": false,
      "inputs": [
        {
          "internalType": "bytes32",
          "name": "_gameId",
          "type": "bytes32"
        },
        {
          "internalType": "address",
          "name": "playerOne",
          "type": "address"
        },
        {
          "internalType": "uint256",
          "name": "_playerOneChoice",
          "type": "uint256"
        },
        {
          "internalType": "uint256",
          "name": "playerOneRandomness",
          "type": "uint256"
        },
        {
          "internalType": "address",
          "name": "playerTwo",
          "type": "address"
        },
        {
          "internalType": "uint256",
          "name": "_playerTwoChoice",
          "type": "uint256"
        },
        {
          "internalType": "uint256",
          "name": "playerTwoRandomness",
          "type": "uint256"
        }
      ],
      "name": "judgeWinner",
      "outputs": [
        {
          "internalType": "string",
          "name": "",
          "type": "string"
        }
      ],
      "payable": false,
      "stateMutability": "nonpayable",
      "type": "function"
    },
    {
      "constant": true,
      "inputs": [
        {
          "internalType": "bytes32",
          "name": "gameID",
          "type": "bytes32"
        }
      ],
      "name": "getWinnerDetails",
      "outputs": [
        {
          "internalType": "address",
          "name": "",
          "type": "address"
        }
      ],
      "payable": false,
      "stateMutability": "view",
      "type": "function"
    },
    {
      "constant": true,
      "inputs": [
        {
          "internalType": "bytes32",
          "name": "_gameId",
          "type": "bytes32"
        }
      ],
      "name": "fetchAddr",
      "outputs": [
        {
          "internalType": "bool",
          "name": "",
          "type": "bool"
        }
      ],
      "payable": false,
      "stateMutability": "view",
      "type": "function"
    },
    {
      "constant": true,
      "inputs": [],
      "name": "getContBAlance",
      "outputs": [
        {
          "internalType": "uint256",
          "name": "",
          "type": "uint256"
        }
      ],
      "payable": false,
      "stateMutability": "view",
      "type": "function"
    },
    {
      "constant": true,
      "inputs": [
        {
          "internalType": "address",
          "name": "addr",
          "type": "address"
        }
      ],
      "name": "getAddrBalance",
      "outputs": [
        {
          "internalType": "uint256",
          "name": "",
          "type": "uint256"
        }
      ],
      "payable": false,
      "stateMutability": "view",
      "type": "function"
    }
  ],
  "bytecode": "0x608060405234801561001057600080fd5b50611010806100206000396000f3fe6080604052600436106100705760003560e01c8063d04589f51161004e578063d04589f514610146578063e46c4e5f14610199578063e513191e146101fe578063f0c84da61461031a57610070565b80635c6324bb146100755780639403f9bd146100f05780639693ba811461011b575b600080fd5b34801561008157600080fd5b506100ae6004803603602081101561009857600080fd5b8101908080359060200190929190505050610370565b604051808273ffffffffffffffffffffffffffffffffffffffff1673ffffffffffffffffffffffffffffffffffffffff16815260200191505060405180910390f35b3480156100fc57600080fd5b506101056103af565b6040518082815260200191505060405180910390f35b34801561012757600080fd5b506101306103b7565b6040518082815260200191505060405180910390f35b34801561015257600080fd5b5061017f6004803603602081101561016957600080fd5b8101908080359060200190929190505050610414565b604051808215151515815260200191505060405180910390f35b3480156101a557600080fd5b506101e8600480360360208110156101bc57600080fd5b81019080803573ffffffffffffffffffffffffffffffffffffffff169060200190929190505050610492565b6040518082815260200191505060405180910390f35b34801561020a57600080fd5b5061029f600480360360e081101561022157600080fd5b8101908080359060200190929190803573ffffffffffffffffffffffffffffffffffffffff1690602001909291908035906020019092919080359060200190929190803573ffffffffffffffffffffffffffffffffffffffff16906020019092919080359060200190929190803590602001909291905050506104b3565b6040518080602001828103825283818151815260200191508051906020019080838360005b838110156102df5780820151818401526020810190506102c4565b50505050905090810190601f16801561030c5780820380516001836020036101000a031916815260200191505b509250505060405180910390f35b61035a6004803603606081101561033057600080fd5b810190808035906020019092919080359060200190929190803590602001909291905050506108d0565b6040518082815260200191505060405180910390f35b600080600083815260200190815260200160002060090160009054906101000a900473ffffffffffffffffffffffffffffffffffffffff169050919050565b600047905090565b600033604051602001808273ffffffffffffffffffffffffffffffffffffffff1673ffffffffffffffffffffffffffffffffffffffff1660601b815260140191505060405160208183030381529060405280519060200120905090565b60008073ffffffffffffffffffffffffffffffffffffffff1660008084815260200190815260200160002060000160009054906101000a900473ffffffffffffffffffffffffffffffffffffffff1673ffffffffffffffffffffffffffffffffffffffff161415610488576001905061048d565b600090505b919050565b60008173ffffffffffffffffffffffffffffffffffffffff16319050919050565b6060806000801b89141561052f576040517f08c379a00000000000000000000000000000000000000000000000000000000081526004018080602001828103825260188152602001807f67616d652069642073686f756c646e74206265207a65726f000000000000000081525060200191505060405180910390fd5b838714156105d4576040518060400160405280600381526020017f5469650000000000000000000000000000000000000000000000000000000000815250905060008060008b815260200190815260200160002060090160006101000a81548173ffffffffffffffffffffffffffffffffffffffff021916908373ffffffffffffffffffffffffffffffffffffffff1602179055506105cf88868b610c53565b6107b4565b600060ff16871480156105ea5750600260ff1684145b806106075750600260ff16871480156106065750600160ff1684145b5b806106245750600160ff16871480156106235750600060ff1684145b5b156106c5576040518060400160405280600981526020017f706c617965724f6e6500000000000000000000000000000000000000000000008152509050876000808b815260200190815260200160002060090160006101000a81548173ffffffffffffffffffffffffffffffffffffffff021916908373ffffffffffffffffffffffffffffffffffffffff1602179055506106bf888a610d1c565b506107b3565b600060ff16841480156106db5750600260ff1687145b806106f85750600260ff16841480156106f75750600160ff1687145b5b806107155750600160ff16841480156107145750600060ff1687145b5b156107b2576040518060400160405280600981526020017f706c6179657254776f00000000000000000000000000000000000000000000008152509050846000808b815260200190815260200160002060090160006101000a81548173ffffffffffffffffffffffffffffffffffffffff021916908373ffffffffffffffffffffffffffffffffffffffff1602179055506107b0858a610d1c565b505b5b5b7fb19be2c0c8665ec31f04098c0a442cac5200f7c2c1929b0446037af2f7d2a46e89826000808d815260200190815260200160002060090160009054906101000a900473ffffffffffffffffffffffffffffffffffffffff1660405180848152602001806020018373ffffffffffffffffffffffffffffffffffffffff1673ffffffffffffffffffffffffffffffffffffffff168152602001828103825284818151815260200191508051906020019080838360005b8381101561088557808201518184015260208101905061086a565b50505050905090810190601f1680156108b25780820380516001836020036101000a031916815260200191505b5094505050505060405180910390a180915050979650505050505050565b60008082905060008510156108e457600080fd5b60028511156108f257600080fd5b600073ffffffffffffffffffffffffffffffffffffffff1660008083815260200190815260200160002060000160009054906101000a900473ffffffffffffffffffffffffffffffffffffffff1673ffffffffffffffffffffffffffffffffffffffff161415610a50573360008083815260200190815260200160002060000160006101000a81548173ffffffffffffffffffffffffffffffffffffffff021916908373ffffffffffffffffffffffffffffffffffffffff1602179055508484604051602001808381526020018281526020019250505060405160208183030381529060405280519060200120600080838152602001908152602001600020600101819055503460008083815260200190815260200160002060020181905550426000808381526020019081526020016000206007018190555062015180420160008083815260200190815260200160002060080181905550610bcd565b60006018603c8060008086815260200190815260200160002060070154600080878152602001908152602001600020600801540381610a8b57fe5b0481610a9357fe5b0481610a9b57fe5b0490506001811115610b15576040517f08c379a00000000000000000000000000000000000000000000000000000000081526004018080602001828103825260168152602001807f4578706972792074696d6520686173207061737365640000000000000000000081525060200191505060405180910390fd5b3360008084815260200190815260200160002060030160006101000a81548173ffffffffffffffffffffffffffffffffffffffff021916908373ffffffffffffffffffffffffffffffffffffffff1602179055508585604051602001808381526020018281526020019250505060405160208183030381529060405280519060200120600080848152602001908152602001600020600401819055503460008084815260200190815260200160002060050181905550505b7fc9621b1db612fa52c8213099eb7c450b407922963a8c63ee6bfe963404f4599783333488604051808581526020018473ffffffffffffffffffffffffffffffffffffffff1673ffffffffffffffffffffffffffffffffffffffff16815260200183815260200182815260200194505050505060405180910390a1809150509392505050565b600083905060008390508173ffffffffffffffffffffffffffffffffffffffff166108fc600080868152602001908152602001600020600201549081150290604051600060405180830381858888f19350505050158015610cb8573d6000803e3d6000fd5b508073ffffffffffffffffffffffffffffffffffffffff166108fc600080868152602001908152602001600020600501549081150290604051600060405180830381858888f19350505050158015610d14573d6000803e3d6000fd5b505050505050565b60008273ffffffffffffffffffffffffffffffffffffffff1660008084815260200190815260200160002060000160009054906101000a900473ffffffffffffffffffffffffffffffffffffffff1673ffffffffffffffffffffffffffffffffffffffff161415610e665760026000808481526020019081526020016000206002015402471015610df8576040517f08c379a0000000000000000000000000000000000000000000000000000000008152600401808060200182810382526022815260200180610fba6022913960400191505060405180910390fd5b60008390508073ffffffffffffffffffffffffffffffffffffffff166108fc600260008087815260200190815260200160002060020154029081150290604051600060405180830381858888f19350505050158015610e5b573d6000803e3d6000fd5b506001915050610fb3565b8273ffffffffffffffffffffffffffffffffffffffff1660008084815260200190815260200160002060000160009054906101000a900473ffffffffffffffffffffffffffffffffffffffff1673ffffffffffffffffffffffffffffffffffffffff161415610fae5760026000808481526020019081526020016000206005015402471015610f40576040517f08c379a0000000000000000000000000000000000000000000000000000000008152600401808060200182810382526022815260200180610fba6022913960400191505060405180910390fd5b60008390508073ffffffffffffffffffffffffffffffffffffffff166108fc600260008087815260200190815260200160002060050154029081150290604051600060405180830381858888f19350505050158015610fa3573d6000803e3d6000fd5b506001915050610fb3565b600090505b9291505056fe436f6e74726163742062616c616e6365206973206e6f742073756666696369656e74a265627a7a72315820de9a39f376e435cdb6286829744b667f61ea69ee845cf31047e05f23a2bc3d7464736f6c63430005100032",
  "source": "pragma solidity 0.5.16;\n\ncontract RockPaperScissors {\n\n\n    uint8 constant ROCK = 0;\n    uint8 constant PAPER = 1;\n    uint8 constant SCISSORS = 2;\n   \n    struct GameData {\n       \n       address playerOneAddress;\n       bytes32 playerOneChoice;\n       uint playerOneBetAmount;\n      \n       address playerTwoAddress;\n       bytes32 playerTwoChoice;\n       uint playerTwoBetAmount;\n\n       uint expiryTime;\n\n       uint startDate ;//new\n       uint endDate;//1518220800 //new\n\n       address winner;\n\n       //uint diff = (endDate - startDate) / 60 / 60 / 24; \n\n    }\n\n    mapping (bytes32 => GameData) gameIDToGame;\n    enum Hand {NONE, Rock, Scissors, Paper}\n\n    event BetPlaced(bytes32 gameID, address playerAddr, uint betAmt, uint choice);\n\n    event GameEnded(bytes32 gameID, string gameResult, address winnerAddr);\n  \n    constructor() public {\n\n    }\n\n    function newGameID()   \n        public view\n        returns (bytes32 _hashGameID)\n    {\n        return keccak256(abi.encodePacked(msg.sender));\n    }\n    \n    function initiateGame(uint _choice, uint playerRandomness, bytes32 gameID) payable public returns(bytes32) {\n       \n        bytes32 _gameId =gameID; \n        \n        require (_choice >= 0); \n        require (_choice <= 2); \n    \n        if(address(gameIDToGame[_gameId].playerOneAddress) == address(0)) { //player 1 has placed his bet , so player 2 will put his bet\n\n          //  require(now < gameIDToGame[_gameId].expiryTime, \"Max waiting time has already passed\");\n            \n            gameIDToGame[_gameId].playerOneAddress = msg.sender;\n            gameIDToGame[_gameId].playerOneChoice = keccak256(abi.encodePacked(_choice, playerRandomness));\n            gameIDToGame[_gameId].playerOneBetAmount = msg.value;\n            \n            gameIDToGame[_gameId].startDate = now; //new\n            gameIDToGame[_gameId].endDate = now + 1 days; //new\n           \n        } else {//player 1 will place his bet\n\n            uint diff = (gameIDToGame[_gameId].endDate - gameIDToGame[_gameId].startDate) / 60 / 60 / 24; // 40 days \n            require(diff<=1, \"Expiry time has passed\"); //new\n\n            gameIDToGame[_gameId].playerTwoAddress = msg.sender;\n            gameIDToGame[_gameId].playerTwoChoice = keccak256(abi.encodePacked(_choice, playerRandomness));\n            gameIDToGame[_gameId].playerTwoBetAmount = msg.value;\n            \n        }\n        emit BetPlaced(gameID, msg.sender, msg.value, _choice);\n        return _gameId;\n    }\n\n\n    function judgeWinner(\n            bytes32 _gameId,\n            address playerOne,\n            uint _playerOneChoice,\n            uint playerOneRandomness, // CHANGED - Randomness added which prevents the other user from correctly guessing the move of the other player\n            address playerTwo,\n            uint _playerTwoChoice,\n            uint playerTwoRandomness) public returns(string memory)\n        {\n                string memory winningParty;\n                require (_gameId != 0,\"game id shouldnt be zero\");\n\n                if (_playerOneChoice == _playerTwoChoice) {\n                    \n                    winningParty =\"Tie\";\n                    gameIDToGame[_gameId].winner = address(0);\n                    handleTie(playerOne, playerTwo, _gameId ); \n\n                } else if ((_playerOneChoice == ROCK && _playerTwoChoice == SCISSORS) \n                        || (_playerOneChoice == SCISSORS && _playerTwoChoice == PAPER) \n                        || (_playerOneChoice == PAPER && _playerTwoChoice == ROCK)) \n                { // p1 won\n                   \n                    winningParty = \"playerOne\";\n                    gameIDToGame[_gameId].winner = playerOne;\n                    rewardWinner(playerOne, _gameId);\n\n                } \n                else if ((_playerTwoChoice == ROCK && _playerOneChoice == SCISSORS) \n                        || (_playerTwoChoice == SCISSORS && _playerOneChoice == PAPER) \n                        || (_playerTwoChoice == PAPER && _playerOneChoice == ROCK)) \n                { // p2 won\n\n                    winningParty = \"playerTwo\";\n                    gameIDToGame[_gameId].winner = playerTwo;\n                    rewardWinner(playerTwo, _gameId);\n\n                }\n                \n                emit GameEnded(_gameId, winningParty, gameIDToGame[_gameId].winner);\n                return winningParty;\n}\n\n    \n    function rewardWinner(address  winnerAddress, bytes32 _gameId) private returns(bool){\n\n        if(gameIDToGame[_gameId].playerOneAddress == winnerAddress) {\n            \n            require(address(this).balance >= (gameIDToGame[_gameId].playerOneBetAmount * 2), \"Contract balance is not sufficient\");\n            address payable _payableWinnerAddress = address(uint160(winnerAddress));\n            _payableWinnerAddress.transfer(gameIDToGame[_gameId].playerOneBetAmount * 2); //level 1\n            return true;\n                \n        } else if(gameIDToGame[_gameId].playerOneAddress == winnerAddress) {\n            \n            require(address(this).balance >= (gameIDToGame[_gameId].playerTwoBetAmount * 2), \"Contract balance is not sufficient\");\n            address payable _payableWinnerAddress = address(uint160(winnerAddress));\n            _payableWinnerAddress.transfer(gameIDToGame[_gameId].playerTwoBetAmount * 2); //level 1\n            return true;\n        } \n        return false;\n    \n}\n\nfunction getWinnerDetails(bytes32 gameID) public view returns(address){\n\n    return gameIDToGame[gameID].winner;\n\n}\n\nfunction handleTie(address playerOne, address playerTwo, bytes32 _gameId) private { \n  \n    address payable _payableOneAddress = address(uint160(playerOne));\n    address payable _payableTwoAddress = address(uint160(playerTwo));\n    \n    _payableOneAddress.transfer(gameIDToGame[_gameId].playerOneBetAmount);\n    \n    _payableTwoAddress.transfer(gameIDToGame[_gameId].playerTwoBetAmount);\n   \n}\n\n\n function fetchExpiryTime(bytes32 _gameId) private view returns(bool) {\n        \n        if(gameIDToGame[_gameId].expiryTime == 0) {\n            return true;\n            \n        } else {\n            return false;\n        }\n\n    }\n\nfunction fetchAddr(bytes32 _gameId) public view returns(bool) {\n            \n        if(address(gameIDToGame[_gameId].playerOneAddress) == address(0)) {\n            return true;\n            \n        } else {\n            return false;\n        }\n    }\n\n      function getContBAlance () \n     \n        view\n        public\n        returns (uint)\n    {\n        return address(this).balance;\n    }\n    \n    function getAddrBalance (address addr)   \n        view\n        public\n        returns (uint)\n    {\n        return addr.balance;\n    }\n\n\n  \n\n}\n\n\n\n/*\n1 InitiateGame() : create game id using msg.sender and now and return it . It will generate the \n2 Place the bet() : place your bet : by entering the player address, value(in wei) and bet. Store the bet in the ledger\n    \n3 Evaluate() : player 2 \n*/\n\n\n\n",
  "sourcePath": "/Users/conduent/test/testmm/RockPaperScissorGame/contracts/RockPaperScissors.sol",
  "compiler": {
    "name": "solc",
    "version": "0.5.16+commit.9c3226ce.Emscripten.clang"
  },
  "schemaVersion": "3.4.0",
  "updatedAt": "2021-07-07T20:21:32.424Z",
  "networkType": "ethereum",
  "devdoc": {
    "methods": {}
  },
  "userdoc": {
    "methods": {}
  }
}